{
  "contractName": "Token",
  "abi": [
    {
      "constant": true,
      "inputs": [],
      "name": "name",
      "outputs": [
        {
          "name": "",
          "type": "string"
        }
      ],
      "payable": false,
      "stateMutability": "view",
      "type": "function"
    },
    {
      "constant": true,
      "inputs": [],
      "name": "totalSupply",
      "outputs": [
        {
          "name": "",
          "type": "uint256"
        }
      ],
      "payable": false,
      "stateMutability": "view",
      "type": "function"
    },
    {
      "constant": true,
      "inputs": [],
      "name": "decimals",
      "outputs": [
        {
          "name": "",
          "type": "uint8"
        }
      ],
      "payable": false,
      "stateMutability": "view",
      "type": "function"
    },
    {
      "constant": true,
      "inputs": [],
      "name": "standard",
      "outputs": [
        {
          "name": "",
          "type": "string"
        }
      ],
      "payable": false,
      "stateMutability": "view",
      "type": "function"
    },
    {
      "constant": true,
      "inputs": [
        {
          "name": "",
          "type": "address"
        }
      ],
      "name": "balanceOf",
      "outputs": [
        {
          "name": "",
          "type": "uint256"
        }
      ],
      "payable": false,
      "stateMutability": "view",
      "type": "function"
    },
    {
      "constant": true,
      "inputs": [],
      "name": "symbol",
      "outputs": [
        {
          "name": "",
          "type": "string"
        }
      ],
      "payable": false,
      "stateMutability": "view",
      "type": "function"
    },
    {
      "constant": true,
      "inputs": [
        {
          "name": "",
          "type": "address"
        },
        {
          "name": "",
          "type": "address"
        }
      ],
      "name": "allowance",
      "outputs": [
        {
          "name": "",
          "type": "uint256"
        }
      ],
      "payable": false,
      "stateMutability": "view",
      "type": "function"
    },
    {
      "inputs": [
        {
          "name": "tokenName",
          "type": "string"
        },
        {
          "name": "tokenSymbol",
          "type": "string"
        },
        {
          "name": "decimalsUnits",
          "type": "uint8"
        }
      ],
      "payable": false,
      "stateMutability": "nonpayable",
      "type": "constructor"
    },
    {
      "anonymous": false,
      "inputs": [
        {
          "indexed": true,
          "name": "from",
          "type": "address"
        },
        {
          "indexed": true,
          "name": "to",
          "type": "address"
        },
        {
          "indexed": false,
          "name": "value",
          "type": "uint256"
        }
      ],
      "name": "Transfer",
      "type": "event"
    },
    {
      "anonymous": false,
      "inputs": [
        {
          "indexed": true,
          "name": "_owner",
          "type": "address"
        },
        {
          "indexed": true,
          "name": "_spender",
          "type": "address"
        },
        {
          "indexed": false,
          "name": "_value",
          "type": "uint256"
        }
      ],
      "name": "Approval",
      "type": "event"
    },
    {
      "constant": false,
      "inputs": [
        {
          "name": "_to",
          "type": "address"
        },
        {
          "name": "_value",
          "type": "uint256"
        }
      ],
      "name": "transfer",
      "outputs": [
        {
          "name": "",
          "type": "bool"
        }
      ],
      "payable": false,
      "stateMutability": "nonpayable",
      "type": "function"
    },
    {
      "constant": false,
      "inputs": [
        {
          "name": "_from",
          "type": "address"
        },
        {
          "name": "_to",
          "type": "address"
        },
        {
          "name": "_value",
          "type": "uint256"
        }
      ],
      "name": "transferFrom",
      "outputs": [
        {
          "name": "",
          "type": "bool"
        }
      ],
      "payable": false,
      "stateMutability": "nonpayable",
      "type": "function"
    },
    {
      "constant": false,
      "inputs": [
        {
          "name": "_spender",
          "type": "address"
        },
        {
          "name": "_value",
          "type": "uint256"
        }
      ],
      "name": "approve",
      "outputs": [
        {
          "name": "success",
          "type": "bool"
        }
      ],
      "payable": false,
      "stateMutability": "nonpayable",
      "type": "function"
    }
  ],
  "bytecode": "0x60606040526040805190810160405280601481526020017f687474703a2f2f7777772e64636570726f2e686b0000000000000000000000008152506000908051906020019062000051929190620001c6565b506040805190810160405280600981526020017fe5a4a7e7899be5b8810000000000000000000000000000000000000000000000815250600190805190602001906200009f929190620001c6565b506040805190810160405280600481526020017f454e52590000000000000000000000000000000000000000000000000000000081525060029080519060200190620000ed929190620001c6565b506008600360006101000a81548160ff021916908360ff1602179055506305f5e10060045534156200011e57600080fd5b6040516200116938038062001169833981016040528080518201919060200180518201919060200180519060200190919050506000835111801562000164575060008251115b15156200017057600080fd5b826001908051906020019062000188929190620001c6565b508160029080519060200190620001a1929190620001c6565b5080600360006101000a81548160ff021916908360ff16021790555050505062000275565b828054600181600116156101000203166002900490600052602060002090601f016020900481019282601f106200020957805160ff19168380011785556200023a565b828001600101855582156200023a579182015b82811115620002395782518255916020019190600101906200021c565b5b5090506200024991906200024d565b5090565b6200027291905b808211156200026e57600081600090555060010162000254565b5090565b90565b610ee480620002856000396000f3006060604052600436106100a4576000357c0100000000000000000000000000000000000000000000000000000000900463ffffffff16806306fdde03146100a9578063095ea7b31461013757806318160ddd1461019157806323b872dd146101ba578063313ce567146102335780635a3b7e421461026257806370a08231146102f057806395d89b411461033d578063a9059cbb146103cb578063dd62ed3e14610425575b600080fd5b34156100b457600080fd5b6100bc610491565b6040518080602001828103825283818151815260200191508051906020019080838360005b838110156100fc5780820151818401526020810190506100e1565b50505050905090810190601f1680156101295780820380516001836020036101000a031916815260200191505b509250505060405180910390f35b341561014257600080fd5b610177600480803573ffffffffffffffffffffffffffffffffffffffff1690602001909190803590602001909190505061052f565b604051808215151515815260200191505060405180910390f35b341561019c57600080fd5b6101a46106df565b6040518082815260200191505060405180910390f35b34156101c557600080fd5b610219600480803573ffffffffffffffffffffffffffffffffffffffff1690602001909190803573ffffffffffffffffffffffffffffffffffffffff169060200190919080359060200190919050506106e5565b604051808215151515815260200191505060405180910390f35b341561023e57600080fd5b6102466108e7565b604051808260ff1660ff16815260200191505060405180910390f35b341561026d57600080fd5b6102756108fa565b6040518080602001828103825283818151815260200191508051906020019080838360005b838110156102b557808201518184015260208101905061029a565b50505050905090810190601f1680156102e25780820380516001836020036101000a031916815260200191505b509250505060405180910390f35b34156102fb57600080fd5b610327600480803573ffffffffffffffffffffffffffffffffffffffff16906020019091905050610998565b6040518082815260200191505060405180910390f35b341561034857600080fd5b6103506109b0565b6040518080602001828103825283818151815260200191508051906020019080838360005b83811015610390578082015181840152602081019050610375565b50505050905090810190601f1680156103bd5780820380516001836020036101000a031916815260200191505b509250505060405180910390f35b34156103d657600080fd5b61040b600480803573ffffffffffffffffffffffffffffffffffffffff16906020019091908035906020019091905050610a4e565b604051808215151515815260200191505060405180910390f35b341561043057600080fd5b61047b600480803573ffffffffffffffffffffffffffffffffffffffff1690602001909190803573ffffffffffffffffffffffffffffffffffffffff16906020019091905050610a8d565b6040518082815260200191505060405180910390f35b60018054600181600116156101000203166002900480601f0160208091040260200160405190810160405280929190818152602001828054600181600116156101000203166002900480156105275780601f106104fc57610100808354040283529160200191610527565b820191906000526020600020905b81548152906001019060200180831161050a57829003601f168201915b505050505081565b60008260008173ffffffffffffffffffffffffffffffffffffffff161415151561055857600080fd5b60008314806105e357506000600660003373ffffffffffffffffffffffffffffffffffffffff1673ffffffffffffffffffffffffffffffffffffffff16815260200190815260200160002060008673ffffffffffffffffffffffffffffffffffffffff1673ffffffffffffffffffffffffffffffffffffffff16815260200190815260200160002054145b15156105ee57600080fd5b82600660003373ffffffffffffffffffffffffffffffffffffffff1673ffffffffffffffffffffffffffffffffffffffff16815260200190815260200160002060008673ffffffffffffffffffffffffffffffffffffffff1673ffffffffffffffffffffffffffffffffffffffff168152602001908152602001600020819055508373ffffffffffffffffffffffffffffffffffffffff163373ffffffffffffffffffffffffffffffffffffffff167f8c5be1e5ebec7d5bd14f71427d1e84f3dd0314c0f7b2291e5b200ac8c7c3b925856040518082815260200191505060405180910390a3600191505092915050565b60045481565b60008360008173ffffffffffffffffffffffffffffffffffffffff161415151561070e57600080fd5b8360008173ffffffffffffffffffffffffffffffffffffffff161415151561073557600080fd5b600660008773ffffffffffffffffffffffffffffffffffffffff1673ffffffffffffffffffffffffffffffffffffffff16815260200190815260200160002060003373ffffffffffffffffffffffffffffffffffffffff1673ffffffffffffffffffffffffffffffffffffffff1681526020019081526020016000205484111515156107c057600080fd5b610846600660008873ffffffffffffffffffffffffffffffffffffffff1673ffffffffffffffffffffffffffffffffffffffff16815260200190815260200160002060003373ffffffffffffffffffffffffffffffffffffffff1673ffffffffffffffffffffffffffffffffffffffff1681526020019081526020016000205485610ab2565b600660008873ffffffffffffffffffffffffffffffffffffffff1673ffffffffffffffffffffffffffffffffffffffff16815260200190815260200160002060003373ffffffffffffffffffffffffffffffffffffffff1673ffffffffffffffffffffffffffffffffffffffff168152602001908152602001600020600082825403925050819055506108da868686610acb565b6001925050509392505050565b600360009054906101000a900460ff1681565b60008054600181600116156101000203166002900480601f0160208091040260200160405190810160405280929190818152602001828054600181600116156101000203166002900480156109905780601f1061096557610100808354040283529160200191610990565b820191906000526020600020905b81548152906001019060200180831161097357829003601f168201915b505050505081565b60056020528060005260406000206000915090505481565b60028054600181600116156101000203166002900480601f016020809104026020016040519081016040528092919081815260200182805460018160011615610100020316600290048015610a465780601f10610a1b57610100808354040283529160200191610a46565b820191906000526020600020905b815481529060010190602001808311610a2957829003601f168201915b505050505081565b60008260008173ffffffffffffffffffffffffffffffffffffffff1614151515610a7757600080fd5b610a82338585610acb565b600191505092915050565b6006602052816000526040600020602052806000526040600020600091509150505481565b6000818310151515610ac057fe5b818303905092915050565b60008360008173ffffffffffffffffffffffffffffffffffffffff1614151515610af457600080fd5b8360008173ffffffffffffffffffffffffffffffffffffffff1614151515610b1b57600080fd5b83600560008873ffffffffffffffffffffffffffffffffffffffff1673ffffffffffffffffffffffffffffffffffffffff1681526020019081526020016000205410151515610b6957600080fd5b600560008673ffffffffffffffffffffffffffffffffffffffff1673ffffffffffffffffffffffffffffffffffffffff1681526020019081526020016000205484600560008873ffffffffffffffffffffffffffffffffffffffff1673ffffffffffffffffffffffffffffffffffffffff1681526020019081526020016000205401111515610bf757600080fd5b610c7f600560008873ffffffffffffffffffffffffffffffffffffffff1673ffffffffffffffffffffffffffffffffffffffff16815260200190815260200160002054600560008873ffffffffffffffffffffffffffffffffffffffff1673ffffffffffffffffffffffffffffffffffffffff16815260200190815260200160002054610e9a565b9250610cca600560008873ffffffffffffffffffffffffffffffffffffffff1673ffffffffffffffffffffffffffffffffffffffff1681526020019081526020016000205485610ab2565b600560008873ffffffffffffffffffffffffffffffffffffffff1673ffffffffffffffffffffffffffffffffffffffff16815260200190815260200160002081905550610d56600560008773ffffffffffffffffffffffffffffffffffffffff1673ffffffffffffffffffffffffffffffffffffffff1681526020019081526020016000205485610e9a565b600560008773ffffffffffffffffffffffffffffffffffffffff1673ffffffffffffffffffffffffffffffffffffffff168152602001908152602001600020600082825401925050819055508473ffffffffffffffffffffffffffffffffffffffff168673ffffffffffffffffffffffffffffffffffffffff167fddf252ad1be2c89b69c2b068fc378daa952ba7f163c4a11628f55a4df523b3ef866040518082815260200191505060405180910390a382600560008773ffffffffffffffffffffffffffffffffffffffff1673ffffffffffffffffffffffffffffffffffffffff16815260200190815260200160002054600560008973ffffffffffffffffffffffffffffffffffffffff1673ffffffffffffffffffffffffffffffffffffffff1681526020019081526020016000205401141515610e9257fe5b505050505050565b6000808284019050838110151515610eae57fe5b80915050929150505600a165627a7a723058205d9fd6b9f4f37dee17dbc49ec09fda122c5af49e6153bc7d6cb5db2b8c9ac9af0029",
  "source": "pragma solidity ^0.4.17;\nimport './Utils.sol';\nimport './interfaces/IToken.sol';\n\ncontract Token is IToken, Utils {\n    /* 公共变量 */\n    string public standard = 'http://www.dcepro.hk';\n    string public name = '大牛币'; //代币名称\n    string public symbol = 'ENRY'; //代币符号比如'$'\n    uint8 public decimals = 8;  //代币单位 小数点位数\n    uint256 public totalSupply = 100000000; //代币总量\n\n    /*记录所有余额的映射*/\n    mapping (address => uint256) public balanceOf;\n    mapping (address => mapping (address => uint256)) public allowance;\n\n    /* 在区块链上创建一个事件，用以通知客户端*/\n    event Transfer(address indexed from, address indexed to, uint256 value);  //转帐通知事件\n    event Approval(address indexed _owner, address indexed _spender, uint256 _value); //设置允许用户支付最大金额通知\n\n    /* 初始化合约，并且把初始的所有代币都给这合约的创建者\n     * @param tokenName 代币名称\n     * @param tokenSymbol 代币符号\n     * @param decimalsUnits 代币后面的单位，小数点后面多少个0，以太币一样后面是是18个0\n     */\n    function Token(string tokenName, string tokenSymbol, uint8 decimalsUnits) public {\n\n        require(bytes(tokenName).length > 0 && bytes(tokenSymbol).length > 0); // validate input\n\n        name = tokenName;\n        symbol = tokenSymbol;\n        decimals = decimalsUnits;\n\n    }\n\n\n    /**\n     * 私有方法从一个帐户发送给另一个帐户代币\n     * @param  _from address 发送代币的地址\n     * @param  _to address 接受代币的地址\n     * @param  _value uint256 接受代币的数量\n     */\n    function _transfer(address _from, address _to, uint256 _value)\n      internal\n      validAddress(_from)\n      validAddress(_to)\n    {\n\n\n      //检查发送者是否拥有足够余额\n      require(balanceOf[_from] >= _value);\n\n      //检查是否溢出\n      require(balanceOf[_to] + _value > balanceOf[_to]);\n\n      //保存数据用于后面的判断\n      uint previousBalances = safeAdd(balanceOf[_from], balanceOf[_to]);\n\n      //从发送者减掉发送额\n      balanceOf[_from] = safeSub(balanceOf[_from], _value);\n\n      //给接收者加上相同的量\n      balanceOf[_to] += safeAdd(balanceOf[_to], _value);\n\n      //通知任何监听该交易的客户端\n      Transfer(_from, _to, _value);\n\n      //判断买、卖双方的数据是否和转换前一致\n      assert(balanceOf[_from] + balanceOf[_to] == previousBalances);\n\n    }\n\n    /**\n     * 从主帐户合约调用者发送给别人代币\n     * @param  _to address 接受代币的地址\n     * @param  _value uint256 接受代币的数量\n     */\n    function transfer(address _to, uint256 _value)\n      public\n      validAddress(_to)\n      returns (bool)\n    {\n        _transfer(msg.sender, _to, _value);\n        return true;\n    }\n\n    /**\n     * 从某个指定的帐户中，向另一个帐户发送代币\n     *\n     * 调用过程，会检查设置的允许最大交易额\n     *\n     * @param  _from address 发送者地址\n     * @param  _to address 接受者地址\n     * @param  _value uint256 要转移的代币数量\n     * @return        是否交易成功\n     */\n    function transferFrom(address _from, address _to, uint256 _value)\n        public\n        validAddress(_from)\n        validAddress(_to)\n        returns (bool)\n    {\n        //检查发送者是否拥有足够余额支出的设置\n        require(_value <= allowance[_from][msg.sender]);   // Check allowance\n\n        allowance[_from][msg.sender] -= safeSub(allowance[_from][msg.sender], _value);\n\n        _transfer(_from, _to, _value);\n\n        return true;\n    }\n\n    /**\n     * 设置帐户允许支付的最大金额\n     *\n     * 一般在智能合约的时候，避免支付过多，造成风险\n     *\n     * @param _spender 帐户地址\n     * @param _value 金额\n     */\n    function approve(address _spender, uint256 _value)\n        public\n        validAddress(_spender)\n        returns (bool success)\n    {\n\n        require(_value == 0 || allowance[msg.sender][_spender] == 0);\n\n        allowance[msg.sender][_spender] = _value;\n        Approval(msg.sender, _spender, _value);\n        return true;\n    }\n}\n",
  "sourcePath": "/Users/ac/ETHER/dapp/enry/contracts/Token.sol",
  "compiler": {
    "name": "solc",
    "version": "0.4.19+commit.c4cbbb05.Emscripten.clang"
  },
  "schemaVersion": "1.0.1",
  "updatedAt": "2018-02-23T09:06:17.991Z"
}